{
  "contractName": "CryptoPirateToken",
  "abi": [
    {
      "constant": true,
      "inputs": [],
      "name": "name",
      "outputs": [
        {
          "name": "",
          "type": "string"
        }
      ],
      "payable": false,
      "stateMutability": "view",
      "type": "function"
    },
    {
      "constant": true,
      "inputs": [],
      "name": "totalSupply",
      "outputs": [
        {
          "name": "",
          "type": "uint256"
        }
      ],
      "payable": false,
      "stateMutability": "view",
      "type": "function"
    },
    {
      "constant": true,
      "inputs": [
        {
          "name": "",
          "type": "address"
        }
      ],
      "name": "balanceOf",
      "outputs": [
        {
          "name": "",
          "type": "uint256"
        }
      ],
      "payable": false,
      "stateMutability": "view",
      "type": "function"
    },
    {
      "constant": true,
      "inputs": [],
      "name": "symbol",
      "outputs": [
        {
          "name": "",
          "type": "string"
        }
      ],
      "payable": false,
      "stateMutability": "view",
      "type": "function"
    },
    {
      "inputs": [
        {
          "name": "_initialSupply",
          "type": "uint256"
        }
      ],
      "payable": false,
      "stateMutability": "nonpayable",
      "type": "constructor"
    }
  ],
  "bytecode": "0x60806040526040805190810160405280600c81526020017f43727970746f50697261746500000000000000000000000000000000000000008152506000908051906020019061004f92919061011c565b506040805190810160405280600381526020017f43505400000000000000000000000000000000000000000000000000000000008152506001908051906020019061009b92919061011c565b503480156100a857600080fd5b5060405160208061055f8339810180604052810190808051906020019092919050505080600360003373ffffffffffffffffffffffffffffffffffffffff1673ffffffffffffffffffffffffffffffffffffffff1681526020019081526020016000208190555080600281905550506101c1565b828054600181600116156101000203166002900490600052602060002090601f016020900481019282601f1061015d57805160ff191683800117855561018b565b8280016001018555821561018b579182015b8281111561018a57825182559160200191906001019061016f565b5b509050610198919061019c565b5090565b6101be91905b808211156101ba5760008160009055506001016101a2565b5090565b90565b61038f806101d06000396000f300608060405260043610610062576000357c0100000000000000000000000000000000000000000000000000000000900463ffffffff16806306fdde031461006757806318160ddd146100f757806370a082311461012257806395d89b4114610179575b600080fd5b34801561007357600080fd5b5061007c610209565b6040518080602001828103825283818151815260200191508051906020019080838360005b838110156100bc5780820151818401526020810190506100a1565b50505050905090810190601f1680156100e95780820380516001836020036101000a031916815260200191505b509250505060405180910390f35b34801561010357600080fd5b5061010c6102a7565b6040518082815260200191505060405180910390f35b34801561012e57600080fd5b50610163600480360381019080803573ffffffffffffffffffffffffffffffffffffffff1690602001909291905050506102ad565b6040518082815260200191505060405180910390f35b34801561018557600080fd5b5061018e6102c5565b6040518080602001828103825283818151815260200191508051906020019080838360005b838110156101ce5780820151818401526020810190506101b3565b50505050905090810190601f1680156101fb5780820380516001836020036101000a031916815260200191505b509250505060405180910390f35b60008054600181600116156101000203166002900480601f01602080910402602001604051908101604052809291908181526020018280546001816001161561010002031660029004801561029f5780601f106102745761010080835404028352916020019161029f565b820191906000526020600020905b81548152906001019060200180831161028257829003601f168201915b505050505081565b60025481565b60036020528060005260406000206000915090505481565b60018054600181600116156101000203166002900480601f01602080910402602001604051908101604052809291908181526020018280546001816001161561010002031660029004801561035b5780601f106103305761010080835404028352916020019161035b565b820191906000526020600020905b81548152906001019060200180831161033e57829003601f168201915b5050505050815600a165627a7a72305820bd3143f58432a26eba2decfae9a06617e356bedbc0b46e80d6e4bb7436e2e3fc0029",
  "source": "pragma solidity ^0.4.2;\n\ncontract CryptoPirateToken {\n  string public name = \"CryptoPirate\";\n  string public symbol = \"CPT\";\n  uint256 public totalSupply;\n// Map for Keys and Values\n  mapping(address => uint256) public balanceOf;\n\n  function CryptoPirateToken (uint256 _initialSupply) public {\n    balanceOf[msg.sender] = _initialSupply;\n    totalSupply = _initialSupply;\n    // allocate the initial Supply\n\n  }\n}\n",
  "sourcePath": "/Applications/MAMP/htdocs/CryptoPirate/Chest/contracts/CryptoPirateToken.sol",
  "compiler": {
    "name": "solc",
    "version": "0.4.24+commit.e67f0147.Emscripten.clang"
  },
  "schemaVersion": "2.0.1",
  "updatedAt": "2018-10-07T13:01:37.645Z"
}